:100000000C94AA010C94C7010C94C7010C94C7016D
:100010000C94C7010C94C7010C94C7010C94C70140
:100020000C94C7010C94C7010C9444230C9417241E
:100030000C94F31D0C94C7010C94C7010C94C701D8
:100040000C94C7010C94C7010C94C7010C94C70110
:100050000C94C7010C946B1E0C94C7010C94C7013F
:100060000C94C7010C94C7010C94C7010C94C701F0
:100070000C94C7010C94C7010C94C7010C94C701E0
:100080000C94C7010C94C7010C94C7010C94C701D0
:100090000C94C7010C94C7010C94C7010C94C701C0
:1000A0000C94C7010C94C7010C94C701A900AA00C5
:1000B000A900AA00A900AA00A900AA006800690076
:1000C0006A006B006C006D006E006F0070007100C4
:1000D00072007300680269026A026B026C026D02B0
:1000E0006E026F027002710272027302680169018E
:1000F0006A016B016C016D016E016F01700171018C
:1001000072017301680469046A046B046C046D0471
:100110006E046F0470047104720473040000000024
:10012000000000002A2B2800000000000000000052
:100130000000000000000029000000002C1E3420F8
:10014000212224342627252E362D3738271E1F201E
:100150002122232425263333362E37381F04050663
:100160000708090A0B0C0D0E0F10111213141516A7
:100170001718191A1B1C1D2F3130232D35040506A5
:100180000708090A0B0C0D0E0F1011121314151687
:100190001718191A1B1C1D2F3130354C0000000098
:1001A000000000000000000000000000000000004F
:1001B000000000000000000000000000000000003F
:1001C0007E0F00D4FFFFFFC7000000781C03530020
:1001D0006E00610070007000790020005000610026
:1001E00064002000760031000000160353006E000A
:1001F000610070007000790020004B0065007900FC
:1002000000000403090409025B00030100A0FA09CD
:100210000400000103010100092111010001224431
:100220000007058103080001090401000203000022
:10023000000921110100012222000705820320008C
:100240000107050303200001090402000103000067
:1002500000092111010001227B0007058403200011
:10026000011201000200000008D016511400010123
:100270000200010660FF0961A1010962150026FF65
:10028000009520750881020963150026FF0095205E
:1002900075089102C005010902A10185020901A1A9
:1002A0000005091901290815002501950875018126
:1002B000020501093009311581257F9502750881F4
:1002C0000609381581257F950175088106050C0AF8
:1002D00038021581257F950175088106C0C005018A
:1002E0000980A101850319012AB700150126B7006D
:1002F000950175108100C0050C0901A10185041943
:10030000012AA002150126A002950175108100C0E6
:1003100005010906A101050719E029E715002501D6
:10032000950875018102950175088101050719007D
:1003300029FF150026FF009506750881000508199C
:100340000129051500250195057501910295017595
:10035000039101C011241FBECFEFDAE0DEBFCDBF95
:1003600011E0A0E0B1E0E4E0FEE402C005900D92EF
:10037000AE3AB107D9F722E0AEEAB1E001C01D9272
:10038000A737B207E1F70E9493110C9499260C94B9
:100390000000879A229A259A1E9918C08091B00170
:1003A0009091B1018230910561F1BCF40097E1F0C8
:1003B000019701F18091B0019091B10183309105D5
:1003C0003CF501969093B1018093B0017E9903C0F2
:1003D0008EEA0E94900481E00895039759F780E027
:1003E0000E945E078F9804C081E00E945E078F9A8A
:1003F0002A9805C082E00E945E078F9A2A9A2D985B
:10040000D9CF83E00E945E078F9A2A9A2D9AD2CF85
:100410001092B1011092B001D9CF982F942B943043
:10042000B8F46330A8F490E0FC01EE0FFF1FE80F72
:10043000F91FE60FF11DEE0FFF1FEE0FFF1FE40F78
:10044000F11DEE0FFF1FE454FF4F85919491089525
:1004500081E090E00895843088F461110FC0E82FA6
:10046000F0E0EE0FFF1F81E04827E40FF11DEE0FD3
:10047000FF1FE455FF4F85919491089581E090E02E
:10048000089581E0089581E008950E944102089551
:1004900081E0089581E0089581E008950E944C0272
:1004A0000895089508950E945102089508950895A9
:1004B000A6E0B0E0EEE5F2E00C94F52549835A831E
:1004C0009E833091B70189819A8131111AC03E8192
:1004D000311599F0211589F00E942A08182F682FEC
:1004E00089819A810E94F80769817A81812F0E940F
:1004F000370F2696E3E00C9411260E941108182F5E
:10050000F3CF0E942A0869817A81F1CFFC01262F5E
:100510004081518162817381848195810E9458025A
:100520000895CF93DF93D82FC92F61E00E948602F0
:100530006D2F7C2F0E944302811549F061E08D2FC1
:100540009C2F0E9486026D2F7C2F0E944502DF9116
:10055000CF9108950F931F93CF93DF93D82FC92F77
:1005600060E00E9486028C016D2F7C2F0E94520257
:100570006D2F7C2FC8010E945302DF91CF911F91F4
:100580000F91089591E001C0990F8A95EAF7892F9C
:100590000E943A070895CF93C82F81E00C2E01C026
:1005A000880F0A94EAF70E94750C8C2F0E94C202F1
:1005B000CF91089581E0089581E008950E94DA02C4
:1005C0000895CF93C82F0E94E6068C2F0E94DC026C
:1005D0008C2F0E94DE022FEF84E39CE021508040AC
:1005E0009040E1F700C00000CF91089581E00E94A3
:1005F000E1020E948F1E089580E00E94E1020E94A5
:10060000A01E08950F931F93CF93DF938C0161E099
:100610000E948602EC01B8010E944A02811509F489
:1006200050C0B801CE010E944E02811509F449C0A4
:10063000B801CE010E944A1B811509F442C0B801DD
:10064000CE010E94641A8115E1F1B801CE010E9429
:100650009D158115B1F1B801CE010E947215811569
:1006600081F1B801CE010E94A61A811551F1B8019D
:10067000CE010E944710811521F1F8018581811575
:1006800081F0CA35FCE7DF0739F178F4C130ECE7D7
:10069000DE07F9F0C330FCE7DF07C9F0C115DC471E
:1006A00071F0C8010E9448020DC0CB35ECE7DE07AF
:1006B000B1F0CC35DC47A9F70E94470CF2CF0E947D
:1006C000F60280E0DF91CF911F910F9108950E9473
:1006D000580C0E94FC02F5CF0E94500CE2CF0E9401
:1006E000540CDFCF0E9456020E94C61D0E94960342
:1006F00008950E949A030E9457020E94CB1D0895FC
:1007000081E008950895CF93DF93D82F0E9480034E
:10071000C82F811519F08D2F0E9482038C2FDF9135
:10072000CF91089508950E948303089580E00E9468
:10073000930308950E94511C0E9493030895CF9340
:100740000E94511CC82F8091B2018C1779F0C09380
:10075000B2010E945F1E6093B3017093B401809355
:10076000B5019093B6018C2F0E949303CF91089509
:10077000ADE0B0E0EEEBF3E00C94F6254887598746
:100780006A877B878C879D8791110E94830B1F82CC
:1007900086E0FE013896DE01119601900D928A9551
:1007A000E1F78D8181110DC029813A814B815C81F6
:1007B0006D817E818F810E94CD0A2D96E2E00C949E
:1007C0001226CE0101960E9491028111EDCFF5CF44
:1007D000FC018481813021F4808191810E94530841
:1007E0000895611529F00E9403170E94C417089507
:1007F0000E944C17FACFCF93C82F811599F08CEF38
:100800008C0F813A88F48C2F0E94D81C811529F016
:100810008C2F0E941C1D0E94F40B8C2F0E94141D13
:100820000E94F40BCF91089580E28C0F883048F439
:10083000C77081E001C0880FCA95EAF70E94640B77
:10084000EFCF8BE58C0F833038F42C2F2452330BF1
:10085000C9010E94781CE6CFE8E5EC0FEB3150F4BB
:10086000F0E0EE0FFF1FE55EFE4F808191810E9458
:100870009E1CD8CF83E38C0F8331A0F661E08C2FD0
:100880000E94F103CFCF811581F19CEF980F913A2F
:1008900028F40E941C1D0E94F40B089590E2980F0A
:1008A000983050F4877091E001C0990F8A95EAF76B
:1008B000892F0E946A0BEFCF9BE5980F933028F4A5
:1008C00080E090E00E94781C089598E5980F9B3195
:1008D00028F480E090E00E949E1C089593E3980F16
:1008E000933118F460E00E94F10308950F931F9371
:1008F000CF93C82F8B010E94FB030115110539F41A
:100900008C2F0E944304CF911F910F9108958FE97E
:100910009FE00197F1F700C0000001501109EDCFF1
:1009200060E570E0893311F060E070E00E947604C9
:100930000895811521F00E94640B0E94F40B089524
:10094000811521F00E946A0B0E94F40B0895A0E02B
:10095000B0E0EDEAF4E00C94F0256C01D62FC72F3F
:10096000FC011581068102950F700E94590BE82E3B
:100970008115F9F0E12E1115E1F08C2F807F803484
:1009800061F080E28D0F8830F0F08C2F807E803215
:1009900021F4D230C0F00115B1F080915F0282FFE6
:1009A00012C082E00E941A0C0E94590B91E0E82EBE
:1009B000E926EC2FE295EF70C03CB0F5F0E0E5568B
:1009C000F94D0C94D925E12CF4CF0C2F0F70C031C8
:1009D00010F00295007F111599F0011559F080E291
:1009E0008D0F883010F0D11107C0802F0E94640B4A
:1009F0000E94F40B8D2F4EC0802F0E94750BF8CFF4
:100A00008D2F0E944304011579F080E28D0F88300C
:100A100010F0D11104C0802F0E946A0B03C0802FF8
:100A20000E947B0B0E94F40BE11409F4C6C00E94E3
:100A3000550B80FDC2C0F60115820E944F0B0E942B
:100A40006707C6010E94AD060E944F0B0E94730704
:100A5000B4C0FC2FFF70FF2EC07FC03219F0F2949B
:100A600080EFF822D11541F0D130C9F1111509F408
:100A700043C00115E9F0BECF80915F0282FD14C032
:100A8000111559F0F11429F08F2D0E94640B0E946A
:100A9000F40B80E00E94FB03C7CF80E00E94430478
:100AA000F11411F28F2DB8CF111569F0011104C0A6
:100AB0008F2D0E949904B8CF013009F0B5CF8F2D4A
:100AC0000E949B0BB1CF0111AFCF8F2D0E94A004CC
:100AD0008F2D0E94A70B8F2D0E948A0BA5CF111579
:100AE00021F0063008F0A0CFE3CF053008F09CCF0E
:100AF0008F2D0E94A00498CF0115D1F3D93349F46A
:100B00002FEF87EE93E0215080409040E1F700C046
:100B100000008D2F0E94430487CF8C2F86958695E9
:100B20008370811569F0813009F07ECF8D2F9C2F65
:100B30009370111102C080E090E00E949E1C74CF5F
:100B40008D2F9C2F9370111102C080E090E00E94C5
:100B5000781C6ACF612F8D2F0E94F10365CF8C2FF7
:100B60008370811138C0111124C04D2F42954695D4
:100B70004770440F440F8D2F8F70042E01C0880FD3
:100B80000A94EAF72D2F2071D4FF07C02FE030E040
:100B900001C0220F4A95EAF72095C695C695C37005
:100BA000822BC23091F0C33099F0C13059F00E94CD
:100BB00043070E94511C0E949303CDB7DEB7E8E0C3
:100BC0000C940C260E943D07F4CF0E944907F1CFF8
:100BD0000E943A07EECF111539F1C0FFEACF4D2F31
:100BE000429546954770440F440F8D2F8F70042E09
:100BF00001C0880F0A94EAF72D2F2071D4FF07C097
:100C00002FE030E001C0220F4A95EAF72095C69503
:100C1000C695C370822BC23069F0C33071F0C13009
:100C200031F00E949507C5CF823018F2D8CF0E94CC
:100C30008F07BFCF0E949B07BCCF0E945507B9CF3B
:100C4000CF70111539F08C2F0E9467078D2F0E94ED
:100C50009904AFCF8D2F0E94A0048C2F0E947307A0
:100C6000A8CFD23F41F170F4D03FC9F0D13F91F00D
:100C7000111509F446C0011509F440C08D2F0E94DA
:100C8000FB0397CFD33FF1F0D43F91F780915F0200
:100C900082FD22C08C2F8F71111501F310C0111528
:100CA00041F0053008F085CF8C2F8F710E948307AB
:100CB00080CF0630F7CF8C2F8F711111CFCF0E94CC
:100CC000670777CF111529F08C2F8F710E945E076F
:100CD00070CF0E945A076DCF111531F063E08C2F51
:100CE0008F710E94FB0B65CF81E00E941A0C0230CD
:100CF00008F45FCF82E00E941A0C5BCF8C2F8F71BB
:100D0000DECF011579F0D93349F4EFEFF7EE23E0A8
:100D1000E150F0402040E1F700C000008D2F0E941C
:100D2000430447CF8C2F8F7199CF0F931F93CF938D
:100D3000DF93EC01688179818D810E9460088C01CC
:100D40000E94A1070E943907B801CE010E94A704A2
:100D5000DF91CF911F910F910895CF93DF93EC0115
:100D60008C81811599F0CE010E940203811111C07E
:100D70000E94590B811551F08D81811539F08091B8
:100D80005F0282FF03C082E00E941A0CDF91CF91C4
:100D90000895CE010E949506CE010E94AA02F6CFC8
:100DA00080E090E00E94781C80E090E00E949E1C11
:100DB0000E94830B0E94F40B0E94E1170E94C4174B
:100DC00008950E94241D0E94D00608950E94720B6F
:100DD0000E94E1060895282F92959F70963099F011
:100DE00060F4925F9F70923030F4203FB1F038F49D
:100DF00081E0283E38F080E008959A5FF3CF81E0EB
:100E0000243FC9F7089591E0813F09F090E081E027
:100E1000283E08F080E0892B089581E00895FC01C8
:100E20008481811539F0808191810E9453080E944C
:100E3000EB06089580E00895A6E0B0E0E2E2F7E076
:100E40000C94F6252696E2E00C941226A7E0B0E07A
:100E5000ECE2F7E00C94F6252796E2E00C941226DB
:100E600008950E94300708950E9431078093C201BF
:100E7000089508950E94340708959091C201892B26
:100E80000E94340708959091C20189230E9434077B
:100E900008959091C20189270E94340708950E9405
:100EA000300708950E944F0708950E9452078093CB
:100EB000C101089580E00E945507089591E001C0A6
:100EC000990F8A95EAF7892F0E945507089521E026
:100ED00030E001C0220F8A95EAF78091C101822B90
:100EE0000E945507089521E030E0A90102C0440F97
:100EF000551F8A95E2F7CA0180959091C101892317
:100F00000E945507089521E030E001C0220F8A9524
:100F1000EAF78091C10182270E94550708959091B8
:100F2000C101892B0E94550708959091C101892321
:100F30000E94550708959091C10189270E94550785
:100F4000089508959B01677091E001C0990F6A951B
:100F5000EAF763E0369527956A95E1F7B901660FE0
:100F6000771F260F371FFA01E20FF31F40E050E012
:100F7000682F70E08191DF019B01042E02C036953D
:100F800027950A94E2F721702195282729232827FD
:100F90002E934F5F5F4F4330510561F708959C01D9
:100FA000A82FA77083E0369527958A95E1F7C901A8
:100FB000880F991F820F931FFB01E80FF91F40E074
:100FC00050E080E0219130E00A2E02C0369527954E
:100FD0000A94E2F721703327042E01C0220F0A94ED
:100FE000EAF7822B4F5F5F4F4330510559F7089561
:100FF000282F862F933068F4243050F434E0939FE8
:10100000B0011124620F711D4BEB51E00E94A20749
:1010100008959C5F9230E0F7622F70E048EB51E05A
:10102000F5CF282F933068F4843090F434E0939F08
:10103000C00111246BEB71E0820F911D0E94CF075C
:1010400008959C5F923020F468EB71E090E0F6CF59
:1010500080E00895A0E0B0E0E0E3F8E00C94F12532
:101060007C010091C1018091C201082BC3E0D0E056
:1010700010E0C8010C2E02C0959587950A94E2F7FE
:1010800080FD09C02197A8F7D12C8D2DCDB7DEB7F3
:10109000E7E00C940D26DC2EB7018C2F0E94500F38
:1010A000019781F3F2CFCF93DF93D82FC92F0E94FE
:1010B0002A086D2F7C2F0E94500FDF91CF91089549
:1010C0001F93CF93DF93162FD72F9091B7019115D0
:1010D00041F0862F972F0E945308DF91CF911F91E7
:1010E0000895811581F0862F972F0E942A08C82F16
:1010F000682F812F9D2F0E94F807612F7D2F8C2F45
:101100000E94500FEACF862F972F0E941108C82FF8
:10111000F4CFE1E0F0E0DF0102C0AA0FBB1F6A9547
:10112000E2F7BD01DF0102C0AA0FBB1F4A95E2F73B
:101130006A2B01C0EE0F2A95EAF7962F9823961393
:1011400002C08E2B0895E0958E230895242F462FFC
:10115000682F8091C1010E9489080E945507089557
:101160000F931F93CF93E091C301C7E08091C40117
:101170008E1304C0CF911F910F9108950E2F10E090
:10118000CE9FF0011124EB53FE4F2081318142812B
:1011900053816481758186810E942607F80131960A
:1011A000E770E4CF2091FD013091FE014091FF01F5
:1011B000509100026091010270910202809103023D
:1011C0000E942607089580910302803178F480916F
:1011D0000202811559F0E091C3012091C4013091C0
:1011E000FE014091FD0157E02E1301C008956E2FBE
:1011F00070E05E9FF0011124DF01AB53BE4F1496E7
:101200008C911497811561F111968C91119783132C
:1012100027C08C91841324C015968C911597811149
:101220001FC012968D919C91A091FF01B091000278
:101230008A1B9B0B883C910598F4809103028F7068
:10124000806180930302E553FE4F80818F7080613F
:1012500080838DEF91E00E94AD060E94B008089552
:10126000FB013196E770C0CFE091C3019091C401BA
:1012700027E0E91302C080E00895AE2FB0E02E9F72
:10128000F0011124EB53FE4F3181361306C030813B
:10129000381303C03581341304C0FD013196E77063
:1012A000E8CF81E008958F929F92AF92BF92DF9234
:1012B000EF92FF920F931F93CF93DF93CDB7DEB7DB
:1012C0002D970FB6F894DEBF0FBECDBF8C0186E020
:1012D000F801DE01189601900D928A95E1F7F80168
:1012E000F58084819DEF892E91E0992E90910102E5
:1012F00091111BC0811509F4FFC0F11409F440C11C
:10130000C8010E940F07811509F43AC187E0F8016E
:10131000D40101900D928A95E1F7C4010E94E8037F
:101320000E94E3080E94D208E7C0E080A280B38058
:10133000D09002022091FF0130910002A501421BD2
:10134000530BD11409F4DBC0483C510508F0A6C08A
:10135000811509F4D1C09091FE0191808091030222
:10136000803108F06BC0991228C09091FD019E1148
:1013700024C0F1105DC08F708061809303020E94D1
:10138000D2088DEF91E00E94AD0680910302F80132
:101390008683F12C8F2D2D960FB6F894DEBF0FBEED
:1013A000CDBFDF91CF911F910F91FF90EF90DF9014
:1013B000BF90AF909F908F900895F11039C040E09A
:1013C000692D8E2D0E94340940E0692D8E2D0E94DA
:1013D0003409F82E8111DDCF888599850E94530844
:1013E000292F22952F70903450F49F70223080F076
:1013F000911599F0F8019681903178F4CBCF2A5F5E
:101400002F70223078F0C8010E94AD06FD2CC2CFAB
:10141000911519F0811509F4BDCF805E883008F46C
:10142000B9CFF1CF803F08F4B5CF815F8330F7CFDC
:1014300080910302816080930302ABCF991207C0B1
:101440009091FD019E1103C0F11409F479C0C80107
:101450000E940F07811509F493C0F11409F490C09C
:1014600080910302803288F02091FD013091FE01CD
:101470003A832983BC82AB82909101029D831E82B4
:101480008F83CE0101960E94AD0687E0F801ADEF93
:10149000B1E001900D928A95E1F742CF909103025D
:1014A0009031A0F4488559856A857B858C859D851A
:1014B0000E941C078DEF91E00E94AD0687E0F401C9
:1014C00011928A95E9F70E94D20863CF8115A1F0A5
:1014D0002091FE0181812813BACF8091FD018E11E8
:1014E000B6CFF110B4CF9683C8010E94AD0687E055
:1014F000F40111928A95E9F7FF24F3944BCF483C0D
:10150000510508F041C08115B9F3F114C9F190916A
:10151000FE01818198132AC08091FD018E1126C0A1
:101520008091030280FD19C08031B8F08683807FEE
:10153000803F39F08681982F907F905F8F70892B44
:101540008683C8010E94AD0687E0F801ADEFB1E0E7
:1015500001900D928A95E1F7E5CE87E0F801ADEFB5
:10156000B1E001900D928A95E1F7C6CFC8010E94C3
:101570000F0781118ACF809103028160809303025B
:10158000C8010E94AD06B8CF488559856A857B851C
:101590008C859D850E941C0791CFAEE0B0E0E3ED05
:1015A000FAE00C94F525288739874A875B876C8792
:1015B0007D878E87CE0108960E9453096C85811520
:1015C000A9F0611541F0288539854A855B857D85BF
:1015D0008E850E94260717E08091C3019091C40177
:1015E00089133AC02E96E3E00C94112687E0FE01A1
:1015F0003896DE01119601900D928A95E1F76115FA
:1016000051F3A091C4018A2F90E001968770992729
:101610002091C3012817190689F097E09A9FD001FD
:101620001124AB53BE4FFE01319601900D929A9555
:10163000E1F78093C4010E94B008CDCF0E94E60676
:101640001092C4011092C30187E0EDEFF1E0DF01D9
:101650001D928A95E9F7BFCF189FC00111248B53C3
:101660009E4F0E945309811509F4BCCFE091C3013C
:101670001E9FF0011124EB53FE4F208131814281E6
:1016800053816481758186810E9426078091C30100
:1016900090E00196877099278093C3019DCF809138
:1016A0000C02869586958695089580910C02877028
:1016B000089590910C02977081E0911101C080E033
:1016C000089580911802089590911802982B909394
:1016D00018020895982F909580911802892380937D
:1016E0001802089510921802089590911702982BED
:1016F000909317020895982F90958091170289234F
:1017000080931702089510921702089508950E9479
:10171000860B089590910D02292F2823211531F071
:101720008095892380930D020E94870B0895089568
:101730000E94970B089590910E02292F28232817B5
:1017400029F0982B90930E020E94980B0895909187
:101750000E02292F2823211531F0809589238093AB
:101760000E020E94980B089580910E02811529F0B7
:1017700010920E0280E00E94980B08950F931F9321
:10178000CF93DF930091000110910101C0911802E5
:1017900080911702C82B80910E02811531F0C82B61
:1017A0000E94C41C81110E94B40BF801C083C09137
:1017B0000001D091010148E050E064E072E0CE0108
:1017C0000E943126892B59F088E0FE01A4E0B2E0A6
:1017D00001900D928A95E1F7CE010E945E1CDF9187
:1017E000CF911F910F9108950E94BE0B0895089507
:1017F0000E94F70B0895962F20915F0222FF11C0DF
:10180000682F660F660F660F692B60930C020E94AB
:10181000670780910C028695869586950E94F80B45
:1018200008950E946707089510920C0280E00E94BC
:10183000F80B089590910C028095892380930C02F7
:10184000282F277021110DC0891759F090915F0240
:1018500092FF07C08695869586950E9473070E9421
:10186000140C089590915F0292FB222720F928170B
:1018700069F080FB92F990935F0280915E029091F3
:101880005F020E94800C82E00E941A0C08958091F1
:101890005F02002482FF0394802D0E94320C089581
:1018A00081E00E94320C089580E00E94320C08957D
:1018B0006FEF7FEF80E090E00E948326089580E044
:1018C00090E00E944F26853E9E4F19F40E94E11A37
:1018D000089580E0089582E090E00E9447260895F0
:1018E00083E090E00E9447260895682F83E090E00F
:1018F0000E946526089584E090E00E944F26089596
:10190000BC0184E090E00E9483260895AB01BC01F5
:101910008FE090E00E9477260895AB01BC0183E13F
:1019200090E00E947726089560E070E0CB010E946D
:101930008D0C089560E070E0CB010E94860C0E943F
:10194000940C0895A8E0B0E0E8EAFCE00C94F625D9
:1019500065EE7EEF80E090E00E94832660E082E00A
:1019600090E00E94652681E08093C2010E94750C80
:1019700060E074E184E090E00E94832660E086E00D
:1019800090E00E94652660E087E090E00E94652676
:1019900040E050E0BA0188E090E00E94772660E0E5
:1019A00083E290E00E94652660E08CE090E00E9477
:1019B000652660E08DE090E00E94652619821A821B
:1019C0001B821C821D821E821F82188648E050E006
:1019D00067E170E0CE0101960E94552640E050E09C
:1019E000BA018FE190E00E94772680E00E94FA1A07
:1019F0000E942C1B0E949A0C2896E2E00C9412265E
:101A00000E94A20C0895682F8EE090E00E94652647
:101A10000895A6E0B0E0EFE0FDE00C94F4250E940C
:101A2000531E8C018091190290911A028017910720
:101A300079F019821A820E94531EBC0149815A8191
:101A400080E090E00E94B80310931A0200931902FC
:101A50002696E4E00C9410260E945F1E60932602F6
:101A600070932702809328029093290260932202A8
:101A700070932302809324029093250208950E947C
:101A80005F1E609326027093270280932802909332
:101A9000290260931E0270931F028093200290938C
:101AA00021020895089508950E94520D0895089501
:101AB0000E94570D0E94540D089508950E945D0DD7
:101AC000089508950E94610D0E945E0D089585E4B9
:101AD00090E10E94AA110E94530D0E94580D089592
:101AE00081E0089581E008950E94700D08950895A1
:101AF000089508950E94770D0E94780D0E94790D37
:101B000008950E945F0C811102C00E94000D0E9486
:101B10006B0C80932A020E947B0C90935F0280934F
:101B20005E020E9438130E94700C0E943A07809156
:101B3000C1010E94520708950E944A1E0E943C1B48
:101B40000E94B2110E94FC100E94810D0E9492031B
:101B50000E9492130E94620D0895A6E0B0E0E3EBAC
:101B6000FDE00C94ED250E94720D811111C00E94C0
:101B7000090D0E949A130E94191281110E943F0DB3
:101B80000E9402180E949F032696EBE00C940926FF
:101B90000E94121110911B0280E00E946110181324
:101BA0000EC010911C0281E00E946110181307C042
:101BB00010911D0282E00E9461101817C1F28091FD
:101BC0002A0281FD0E9467100E94740DC82E8BE1CD
:101BD000A82E82E0B82E00E099249394802F0E94D2
:101BE0006110182FF50191915F01891731F1D82EFD
:101BF000D926F12CEE24E3948E2D8D218115B1F0A0
:101C0000C114A1F0F9820A830E94531E9C838B8326
:101C10009D8291E08E2D8123811101C090E0498148
:101C20005A816B817C818D810E94B803F394EE0C04
:101C3000F4E0FF12E1CFF50112930F5F033071F66C
:101C40000E942C0D96CF1F93CF93DF930E94550FC8
:101C5000EC01811522E5920708F05DC0811540E591
:101C6000940708F0DBC0803E910528F58D3C910576
:101C700008F0ACC0883A910578F4853A910508F0EF
:101C8000A2C08130910509F441C00497813A9105C1
:101C9000E8F1C0E0D0E03AC0885A91094B97C8F704
:101CA000C85AD0E0CC0FDD1FCF5ADE4F0990D88143
:101CB000C02DD4642BC0811550E49507F8F4C115EC
:101CC00080E2D80708F0C0C0C83ED105F8F0CE01C8
:101CD0009A9581159F41E8F68D2F0E94F60F182FD7
:101CE000CE0199270E94550F212F30E0322F222755
:101CF000E901CC27DF71C82BD92B08C099270E9496
:101D0000550FCC27DF70C82BD92BD06ACE01DF91BD
:101D1000CF911F910895803842E59407C8F5803629
:101D200052E5950708F05BC0C03482E5D807D0F4CF
:101D3000C03292E5D90708F04BC08C2F8695869566
:101D400020E2829FC0011124C37021E030E0A9018C
:101D500002C0440F551FCA95E2F7EA01C82BD92BE0
:101D6000DD68D4CF8C2F86958695877050E2859F4D
:101D7000C0011124C37021E030E0A90102C0440F6A
:101D8000551FCA95E2F7EA01C82BD92BDC68BECFF4
:101D9000803C52E5950758F48F71C03AD245A0F5C2
:101DA00090E0982F8827EC01C46FD06AAFCF805C99
:101DB0009245809708F06DCFDC2FCC27CC27DF71C0
:101DC000C06FD06AA3CFA497D064A0CFD0659ECFB8
:101DD000CF71D0E0DC2FCC27C16FD06A97CF86952A
:101DE0008695877020E2829FC0011124C37021E094
:101DF00030E0A90102C0440F551FCA95E2F7EA017D
:101E0000C82BD92BDA6882CF0E94F60FC82FD0E0FA
:101E1000DC2FCC27CC27DF71D06278CF8F710E9466
:101E2000F60F53E0CC0FDD1F5A95E1F7CC27DF709A
:101E3000282F30E084FF04C050E1859F90011124D9
:101E4000C22BD32BD06962CF8D2F8F710E94F60FDA
:101E5000182FCE0199270E94550F212F30E0322FE5
:101E6000222722273F71282B392BE901D5CF462F76
:101E7000672F733028F4443080F40E94D5140895FD
:101E80007D3F39F4411109C041E060E00E94E11456
:101E900008957C3F11F44115C1F380E090E008956E
:101EA0000E94370F0E94230E08959C01803E9105E9
:101EB00009F448C0D8F48133910509F47DC048F491
:101EC0008932910509F46DC08A9709F47CC0C90173
:101ED00008958933910551F18238910539F1C597FB
:101EE000B1F780915E0285FFF2CF29C0843E910553
:101EF00009F447C048F4823E910599F1833E91056B
:101F0000A9F121EE30E0E3CF863E910509F444C00B
:101F1000873E9105E1F680915E0283FD61C090915C
:101F20005F0291FF2BC024EE30E0D1CF80915E02A2
:101F30008370811152C080915F0283FFC8CF29E274
:101F400030E0C5CF80915E0280FD33C090915F028A
:101F500090FFBDCF23EE30E084FFB9CF20E030E02A
:101F6000B6CF80915E0282FDF5CFB1CF80915E0247
:101F700082FD30C090915F0290FD2FC084FFA7CFFB
:101F8000EDCF80915F0281FFA2CF80915E0227EEAC
:101F900030E084FDE3CF9BCF80915E0283FDF7CFDD
:101FA00096CF80915E0285FD1EC080915F0283FF07
:101FB0008ECF29E330E08BCF80915E0286FF87CF02
:101FC0002AE230E084CF80915E0286FF80CF21E359
:101FD00030E07DCF22EE30E07ACF20EE30E077CFD8
:101FE00026EE30E074CF25E330E071CF90915E02B1
:101FF00092FF10C041E0282F2471243009F040E006
:1020000031E0282F2871283009F030E0431711F013
:102010002CE0822793FF10C041E0282F2471243147
:1020200009F040E031E0282F2871283109F030E034
:10203000431711F02CE0822730915F0230FF10C06F
:1020400051E0282F2171213009F050E041E0282F84
:102050002871283009F040E0541711F029E0822758
:1020600031FF10C041E0282F2171213109F040E0FB
:1020700031E0282F2871283109F030E0431711F0A2
:1020800029E0822794FD877E089580E00895CF930C
:102090009C01FB01805E9245C1E0809738F4C581C8
:1020A000C11104C0822F8F710E94CB028C2FCF915F
:1020B000089508950E945910089508950E945D1092
:1020C0000895E82FF0E0ED59FD4F808108950895BF
:1020D00080EA8A95F1F7089500C008950E9468107B
:1020E0000895F894E82FE295EF70F0E041A18F7029
:1020F00021E030E0B90102C0660F771F8A95E2F750
:10210000CB01962F9095942391A392A1892B82A322
:102110007894089584E90E94711080E90E947110FA
:1021200081E90E94711086EC0E94711084E30E9484
:10213000711087E90E94711086E60E94711008955F
:10214000A0E0B0E0E6EAF0E10C94F025EC01D62E38
:10215000062F10E0C80185579E4F7C01FC0180814D
:102160008F3F09F444C0F894E82FE295EF70F0E057
:1021700091A18F7021E030E001C0220F8A95EAF72B
:10218000892F822B81A382A12095282322A37894D2
:102190000E946C10A7E8B1E091E0C12C8D918F3FB7
:1021A00079F0E82FE295EF70E05EF0E0208130E01A
:1021B0008F7002C0359527958A95E2F7892F20FD0B
:1021C00080E0C82A990FF1E0AB38BF0739F7F70173
:1021D00080818F3F11F00E94711061E0C11001C039
:1021E00060E08D2D0E946E10C00FD11FC882CDB748
:1021F000DEB7E8E00C940C260E948A1083E0E3E648
:10220000F2E0DF01982F1D929A95E9F7E0E6F2E0FF
:10221000DF011D928A95E9F783E00E9450110E9428
:102220005A100895A3E0B0E0E8E1F1E10C94F42540
:102230008E010F5F1F4F83E0F80111928A95E9F735
:1022400060E0C8010E94A01061E0C8010E94A010D7
:1022500062E0C8010E94A01043E050E0B80180E6AF
:1022600092E00E94312621E0892B81F420E043E0B6
:1022700063E672E080E692E00E945111182F0E94FE
:102280005E10812F2396E4E00C94102689819A81B8
:10229000AB818093600290936102A0936202E7CFCA
:1022A0000895A0E0B0E0E7E5F1E10C94F025D82E28
:1022B000E92EF62ED72F042FC22F211579F081E0B9
:1022C00080932D020E94531E90932C0280932B0228
:1022D00080E0CDB7DEB7E8E00C940C26C0902D026C
:1022E000C114B1F380912B0290912C020E94E21D47
:1022F000059770F310E0A8016D2D7E2D8F2D9D2F79
:102300000E943126892B41F0A8016D2D7E2D8F2D45
:102310009D2F0E943E26CC2D10922D028C2FD9CFBE
:102320000E94AD0D08950E94EC1D0E9433200E9472
:10233000670D0E944D200E949C0D0E945A200E9411
:102340005F200E9490110E9479200E94001F0E942D
:102350007A0DF5CF9093AF018093AE0108950E945E
:10236000700D0895EFE2F2E088E0DF011D928A959A
:10237000E9F70E94C2120895FC01228130E02F5F2C
:102380003F4F23703327938181E09217130609F0A2
:1023900080E008950F931F93CF93DF93EC01162FE6
:1023A000042F0E94BC11811113C08A81FE01E80F25
:1023B000F11D00FB17F914838F5F83708A83888176
:1023C0008F5F888381E0DF91CF911F910F910895F6
:1023D00080E0F9CFCF93DF93FC01EA01A3818281F2
:1023E0008A17B9F0AE0FBF2FB11D14968C9187FBE1
:1023F000992790F98F77DB018C93988383818F5F86
:102400008370838381818F5F818381E0DF91CF91AE
:10241000089580E0FBCF462F682F8FE292E00E9464
:10242000CA110895AB01BC018FE292E00E94EA114B
:102430000895AEE0B0E0EFE1F2E10C94F025809178
:102440002E02811551F010922E028091310280935C
:10245000320280912F02809330020E9400130E946A
:10246000AF11E82E811571F1E12C0CEF8DEFF82EF4
:102470001FC0CD84DE84D982C11449F1FA820E9442
:10248000531E32E0E32EBC0149815A818E2D91E02A
:102490000E94B803DF82C11401F1F8860E94531E26
:1024A000BC014F8158858E2D90E00E94B803E12E2B
:1024B000BE01635F7F4FCE010E960E941212182F4D
:1024C0008111D7CF8E2D2E96E8E00C940C260A832E
:1024D0000E94531E23E0E22ED6CF0887DFCF8FE87D
:1024E00091E00197F1F700C00000089520B36C500F
:1024F0006F7081E090E001C0880F6A95EAF7982F2D
:102500009095922390BB91B3892B81BB08958FB195
:1025100090E06C506F7002C0959587956A95E2F7D0
:10252000817008950895CF93DF93C0E080913702C2
:10253000C81760F00E946F12C0E080913702C81780
:1025400078F00E949212DF91CF91089560E08C2F75
:102550000E94761261E08C2F0E947612CF5FE6CF48
:1025600060E08C2F0E948712D82F61E08C2F0E9490
:102570008712EC2FF0E0E75CFD4F880F8D2B8083F6
:10258000CF5FDBCF81E0809337020E9493120895E2
:102590001F93CF93DF93182F440F642BC82FD0E0E5
:1025A000DE01A75CBD4FEC918E2F8370681721F17F
:1025B000EE0FEE0FE62BEC93EF70F0E0E257FE4FDC
:1025C000C85CDD4F90818881980F9883943024F007
:1025D00060E0812F0E940B1288818D3F24F461E01E
:1025E000812F0E940B128881082E000C990B64E049
:1025F00070E00E94C5258883DF91CF911F910895D7
:10260000CF93DF93C0E080913702C81718F0DF91B5
:10261000CF91089561E08C2F0E948712D82F60E03F
:102620008C2F0E948712682F4D2F8C2F0E94C8126A
:10263000CF5FE9CF0E94580C089580E00E9461109E
:10264000817008950E9412112FEF86E791E02150CA
:1026500080409040E1F700C000000E9412110E94EB
:102660001D13811521F00E941A130E948F1E0895D8
:102670000E942213089581E008950E943B1308955B
:10268000FF920F931F93CF93DF93F82E03B110E0C7
:1026900026E0159507952A95E1F700951095602F8E
:1026A000617060933C0280913A02681303C080E03D
:1026B000F11421F080E00E94C90181E0CFB1D0E0A7
:1026C00096E0D595C7959A95E1F7C095D0956C2F72
:1026D000617060933D0290913B02691302C0F11456
:1026E000D1F081E00E94C901C0FB6627772761F91C
:1026F00001701127602B712B072E000C880B990B92
:102700000E943D1380913C0290913D0290933B02C8
:1027100080933A0202C08111E7CFCDB7DEB7E5E082
:102720000C940F2626982E9A86988E9A81E00E9405
:102730004013089580E00E94401308950F931F9363
:10274000CF93DF938C01FC01C081D181CE010E9427
:1027500047262196F801D183C083DF91CF911F9145
:102760000F91089584E0089598E0699FB0011124C5
:10277000640F711D640F711D98E1899F600D711DBB
:102780001124CB01889608950F931F93CF93DF9365
:10279000982F942B9430B8F46330A8F40E94B413AB
:1027A0008C010E944726C82FD0E0DC2FCC27C8011F
:1027B00001960E9447269E01282BC901DF91CF91E7
:1027C0001F910F91089580E090E0F8CF0F931F9331
:1027D000CF93DF93122F032F982F942B943068F40C
:1027E000633058F40E94B413EC01602F0E946526F8
:1027F000612FCE0101960E946526DF91CF911F9136
:102800000F910895FF920F931F93CF93DF93F42EB0
:10281000843040F5611126C024E0829F800111249C
:1028200008571F4F81E084279801280F311D280F7A
:10283000311DC9010E944726C82FD0E0DC2FCC27CC
:1028400081E090E0F11002C083E090E0800F911FE2
:102850000E9447269E01282BC901CDB7DEB7E5E0CF
:102860000C940F2680E090E0F8CF0F931F93CF9346
:10287000DF93962F142F022F632F8430E8F49111E9
:102880001BC024E0829FE0011124C857DF4F81E084
:1028900084279E01280F311D280F311DC9010E9478
:1028A000652681E090E0111102C083E090E0602F86
:1028B0008C0F9D1F0E946526DF91CF911F910F9174
:1028C00008951F93CF93DF93C0E0D0E011C0412F54
:1028D0006D2F8C2F0E940D029C01412F6D2F8C2F8C
:1028E0000E94E6131F5F143091F7DF5FD33011F0C1
:1028F00010E0EDCF41E060E08C2F0E942B029C01A4
:1029000041E060E08C2F0E94351440E060E08C2FA5
:102910000E942B029C0140E060E08C2F0E94351445
:10292000CF5FC43091F6DF91CF911F910895EF9260
:10293000FF920F931F93CF93DF938C01EA017A01EB
:10294000E60EF71ECE15DF0529F4CDB7DEB7E6E0BB
:102950000C940E2680E00036110520F4C8018896FC
:102960000E94472689930F5F1F4FECCFEF92FF9293
:102970000F931F93CF93DF938C01EA017A01E60E48
:10298000F71ECE15DF0529F4CDB7DEB7E6E00C94CF
:102990000E260036110528F46881C80188960E9429
:1029A000652621960F5F1F4FECCF982F942B943004
:1029B00028F4633018F40E94C413089580E090E076
:1029C0000895843028F4611103C00E940214089510
:1029D00080E090E0089580E1089588E693E008950E
:1029E000EF92FF920F931F93CF93DF938C01EA0135
:1029F0007A01E60EF71ECE15DF0529F4CDB7DEB756
:102A0000E6E00C940E26083683E0180748F4C80167
:102A100088569F4F0E94472689930F5F1F4FEBCF29
:102A200080E0FACFEF92FF920F931F93CF93DF9343
:102A30008C01EA017A01E60EF71ECE15DF0529F4B6
:102A4000CDB7DEB7E6E00C940E26083683E0180713
:102A500030F46881C80188569F4F0E9465262196F0
:102A60000F5F1F4FEACFCF93DF93C8E9D0E060E05C
:102A7000CE010E9465262196C11584E0D807B9F7DA
:102A8000DF91CF910895A2E0B0E0E9E4F5E10C9484
:102A9000F325F82E80E1F816A0F48FEF93E00E9462
:102AA000472681110EC008E910E0F1100EC01A830C
:102AB000098340E0BE016F5F7F4F8EE993E10E9482
:102AC00087192296E5E00C940F26011584E018077B
:102AD000C1F3C8010E9447260F5F1F4F8111F5CF38
:102AE000FA94E3CFCF93DF93EB0186319C4719F53E
:102AF0000E94610B9D819115A1F08A7A91E081116C
:102B000001C090E090933E02811549F085E30E9458
:102B1000141D0E94F40B80E0DF91CF91089589E2AB
:102B2000F6CF80913E02811521F085E30E941C1DA5
:102B3000F0CF89E2FBCF81E0EFCFCF93DF93EC01C1
:102B4000FB018581811509F4CFC09E0130572332E6
:102B5000310508F0AFC00E947B0C90935F02809318
:102B60005E02FE01E150F047E232F10520F4E95542
:102B7000F94D0C94D92580915E02816080935E02AC
:102B800090C080915F02886080935F028AC08091CC
:102B90005E028260F3CF80915E028460EFCF80910D
:102BA0005E028860EBCF80915F028160EDCF809103
:102BB0005F028260E9CF80915E028061DFCF809109
:102BC0005E028062DBCF80915E028064D7CF0E947C
:102BD000E60680915E028068D1CF80915E028C60B3
:102BE000CDCF80915F028360CFCF80915E028E7FD8
:102BF000C5CF80915F02877FC7CF80915E028D7FB6
:102C0000BDCF80915E028B7FB9CF80915E02877FBE
:102C1000B5CF80915F028E7FB7CF80915F028D7FAD
:102C2000B3CF80915E028F7EA9CF80915E028F7DAF
:102C3000A5CF80915E028F7BA1CF0E94E606809196
:102C40005E028F779BCF80915E02837F97CF8091CA
:102C50005F028C7F99CF80915E02992782FF9395C6
:102C600090FB82F990FB83F989CF80915F02982FC6
:102C7000909590FB80F990FB81F986CF90915E0250
:102C8000892F8F7B96FF806479CF0E94E606909112
:102C90005E02892F97FB87F9805870CF81E00E94F0
:102CA000030D80915E0290915F020E94800C0E9451
:102CB000E60680E0DF91CF91089580E0F0CF90911B
:102CC0005E02892F8F7E94FF806158CF90915E02C3
:102CD000892F8E7F90FF816051CF90915F02892F65
:102CE000877F93FF886050CF81E0E4CF282F35EBBA
:102CF0002303C001112497FF04C080589109892F34
:102D0000089580589F4FFBCF8091450280FF0DC0F2
:102D10006091070170E0660F771F60387105B0F5AC
:102D200061157105A9F1862F089581FF07C0609193
:102D3000070184E0689FB0011124EFCF82FF04C037
:102D40006091070188E0F6CF909144029115D9F087
:102D50002091060180910701682F70E0921730F0F2
:102D600043E0660F771F4A95E1F7D7CF899FC001EF
:102D7000112433E0880F991F3A95E1F7622F70E034
:102D80000E94C525CACF68E070E0CDCF8FE70895D7
:102D900081E008958091450280FF0CC0609103019D
:102DA00070E075956795759567956115710549F1A1
:102DB000862F089581FF06C06091030170E075952C
:102DC0006795F3CF6091030182FD0BC090914302A0
:102DD0009115A1F06091020180910301961738F0DE
:102DE000682F70E06038710500F38FE70895899FC0
:102DF000C001112470E00E94C525F4CF61E070E0AD
:102E0000D7CF81E00895E3E3E80FE331E0F5F0E0A8
:102E1000E753F94D0C94D9250E948416819580932F
:102E2000490208950E948416FACF0E948416819563
:102E30008093480208950E948416FACF0E94CA1611
:102E400080934A0208950E94CA168195F9CF0E9484
:102E5000CA16819580934B0208950E94CA16FACF34
:102E6000815D990B21E030E001C0220F8A95EAF7DD
:102E700080914702822B80934702089580914502FA
:102E80008160809345020895809145028260F9CF68
:102E9000809145028460F5CF409148028D3C59F401
:102EA0008091490287FF0DC010924902411559F4E3
:102EB0001092440208C08E3C81F480914902181699
:102EC0009CF3411581F080914A0290914B02892B2D
:102ED000811159C01092430208958F3C41F447FF7D
:102EE000F0CF10924802809149028115E0CF803DD9
:102EF00019F41416B4F3E5CF90914A02893D29F4F0
:102F00001916FCF610924A02DCCF8A3D19F497FF9D
:102F1000D8CFF8CF90914B028B3D29F497FFD1CFBA
:102F200010924B02CECF8C3D19F41916CCF3C9CFB9
:102F30009FE2980F983090F4815D990B21E030E08A
:102F4000B90102C0660F771F8A95E2F7CB01809521
:102F500090914702892380934702B3CF8D3D31F48E
:102F6000809145028E7F80934502ABCF8E3D21F448
:102F7000809145028D7FF7CF8F3D09F0A2CF8091E0
:102F800045028B7FF0CF08950E94531E2091480286
:102F900030914902232B211521F080934102909317
:102FA000420220914A0230914B02232B211521F03D
:102FB00080933F029093400286E492E00E94691C55
:102FC000089586E0E6E4F2E0DF011D928A95E9F7D4
:102FD0001092440210924302109245020895FC019F
:102FE000828181110DC0838181110AC08481811188
:102FF00007C081E09581911101C080E08170089542
:1030000081E0FCCFA6E0B0E0E8E0F8E10C94F02528
:1030100086E0E6E4F2E09E012F5F3F4FD901019088
:103020000D928A95E1F7109248021092490210928F
:103030004A0210924B028B819C81892B7901811568
:1030400089F080914102909142020E94E21D6C0140
:10305000809144028115B9F1909108019C151D04DD
:1030600008F43EC08D819E81892B811591F080915D
:103070003F02909140020E94E21D8C018091430228
:10308000811509F45FC0909104019017110608F4AE
:1030900067C0B70186E492E00E942F1D811105C030
:1030A00086E492E00E94EF1781110E94C41786E027
:1030B000F701A6E4B2E001900D928A95E1F7269619
:1030C000E8E00C940C26209109019AE0299F9001D8
:1030D00011242C153D0530F68F5F8093440202C009
:1030E0008F3FD1F7DB80D11459F00E94841691E014
:1030F0001D140CF09FEF899F802D112480934802AE
:10310000DC80D11459F00E94841691E01D140CF05B
:103110009FEF899F802D112480934902809148025E
:10312000811509F49FCFD0904902D11409F49ACFA8
:103130000E947616809348028D2D0E947616809309
:10314000490290CF209105019AE0299F9001112416
:103150002017310708F09DCF8F5F8093430202C094
:103160008F3FD1F71D81111559F00E94CA1691E0C9
:1031700011160CF09FEF899F802D112480934A0235
:103180001E81111559F00E94CA1691E011160CF01B
:103190009FEF899F802D112480934B0280914A02DA
:1031A000811509F476CF10914B02111509F471CFF6
:1031B0000E94761680934A02812F0E947616809391
:1031C0004B0267CFA0E0B0E0E8EEF8E10C94EF2509
:1031D000E82FF0E0E45EFE4FB490282F2695269568
:1031E000269530E0F901E454FE4F0491877010E019
:1031F000082E02C0159507950A94E2F70170112771
:10320000F901E455FE4FE490F12C082E02C0F5942C
:10321000E7940A94E2F7E0FAEE24FF24E0F8F901DB
:10322000E456FE4FC491D0E002C0D595C7958A956B
:10323000E2F7C170DD27C62ED12C0115110549F525
:10324000E114F10431F086EE0E94FB03C601009701
:1032500071F5B6018B2D0E947604C601009779F5B1
:10326000E114F104A1F50115110531F081EE0E9480
:103270004304C6010097C9F5CD2B31F08CE20E94C2
:103280009004C114D104C9F5CDB7DEB7E9E00C94C0
:103290000B2681EE0E94FB03C601009789F2EFE93D
:1032A000FFE03197F1F700C000000197F6CFEFE99A
:1032B000FFE03197F1F700C000000197C8CFEFE9B8
:1032C000FFE03197F1F700C000000197C7CF86EE0D
:1032D0000E944304C601009731F2EFE9FFE0319705
:1032E000F1F700C000000197F6CFEFE9FFE031975A
:1032F000F1F700C000000197BDCF8FE99FE0019773
:10330000F1F700C0000091E0C91AD108BACFA0E0DF
:10331000B0E0EDE8F9E10C94EF257C01D62F172FF2
:10332000042F8D2F912FF70109958115B9F0813068
:1033300009F060C08D2F912FF7010995C82F8130BA
:1033400091F48D2F912FF70109950E949004802F01
:1033500090E0009709F046C0C111E3CFCDB7DEB7CA
:10336000E9E00C940B26823039F48D2F912FF70170
:1033700009950E94FB03EBCF833039F48D2F912FF9
:10338000F70109950E944304E2CF843001F78D2FA5
:10339000912FF7010995C82FC12CD12C8AE0B82EA6
:1033A0002C2F2053330BC9012A30310568F0C1148A
:1033B000D10469F28FE99FE00197F1F700C00000A6
:1033C00091E0C91AD108F3CFBC9C9001BD9C300D8F
:1033D00011246C01C20ED31E8D2F912FF701099578
:1033E000C82FDECFEFE9FFE03197F1F700C0000012
:1033F0000197AFCF602F0E94E21893CF0F931F93D6
:10340000CF93DF93C42FD22FFC0185818115C9F0A2
:1034100040934E020E94531E90934D0280934C02A3
:1034200080E28C0F883040F4C77081E001C0880FC3
:10343000CA95EAF70E949904DF91CF911F910F91ED
:10344000089510914E02141333C080914C02909154
:103450004D020E94E21D883C910550F5C0E2CD0F5F
:103460001D17C1F080E2810F883040F4177081E0B1
:1034700001C0880F1A95EAF70E94A004C83050F4E2
:1034800091E08D2F877001C0990F8A95EAF7892FF7
:103490000E949904802F0E949004C83068F6D7706B
:1034A00081E001C0880FDA95EAF70E94A004C4CF3A
:1034B00080E28C0F883008F0BFCFC77081E001C078
:1034C000880FCA95EAF7F1CF0F93DB01FC01E851B1
:1034D000FC47E730F10598F5E452F94D0C94D925F5
:1034E00006E221EE41EE6AE17CE7CD010E94FE1981
:1034F00080E00F91089507E225EE45EE6BE17CE751
:10350000F4CF06E221EE40EE68E17CE7EECF07E281
:1035100025EE44EE69E17CE7E8CF06E221EE42EEDB
:103520006CE17CE7E2CF07E225EE46EE6DE17CE759
:10353000DCCF08E221E045EE6EE17CE7D6CF1596C0
:103540008C91811110924E0281E0D3CFCF93DF9303
:103550009C01FB0127378CE7380739F028373C47B7
:10356000F1F081E0DF91CF9108958581811591F08F
:103570000E94D81A0E9467070E94DE1AD82F0E9464
:10358000DB1AC82F0E94D81A4D2F6C2F0E94A60854
:1035900080E0E8CF0E94D81A0E947307EDCF8581A2
:1035A000811519F00E94DB1AE5CF0E94DB1AF4CFD7
:1035B00080910C01089580910B01089580910A017A
:1035C000089584E290E00E944726853289F485E2DE
:1035D00090E00E944726863059F486E290E00E94EF
:1035E000472691E0873209F090E0892F8170089595
:1035F00080E0FCCFCF93C82F65E2811101C06FEF4F
:1036000084E290E00E94652666E0C11101C06FEF80
:1036100085E290E00E94652667E2C11101C06FEF6C
:1036200086E290E00E946526CF910895089587E292
:1036300090E00E944726682F70E080E090E00895B7
:103640000895CF93C62F0E94201B6C2F87E290E035
:103650000E946526CF91089580E00E94FA1A60E0EA
:1036600070E0CB010E94211B0E9461140E9433155F
:1036700081E00E94FA1A08950E94161B0E94171BEF
:103680000E94201B0E94E11A811102C00E942C1B83
:10369000089508959C01FB018581811551F0A901D0
:1036A00057574038510530F4822F0E94431580E06F
:1036B000089581E008952FEFFC01208308950E9472
:1036C0005B1B089580E00895CF92DF92FF920F93E5
:1036D0001F93CF93DF93EC01F62E0E94621B8111A2
:1036E00010C0E881E150E531E0F4F0E0ED51F94D32
:1036F0000C94D92519828CE08A836F2DCE010E940B
:10370000F61EDF91CF911F910F91FF90DF90CF9028
:10371000089589818330F9F038F4813061F0823086
:1037200099F08FEF8883E9CF8430D9F71A821B8212
:103730001C821D82E2CF0E945F1E0E94DF256A83E9
:103740007B838C839D83D9CF0E94171B1A821B8297
:103750001C826D83D2CF0A8110E06E0183E0C80E17
:10376000D11C033011054CF6802F0E946110F60128
:1037700081936F010F5F1F4FF4CF8981823031F049
:10378000853079F68A810E94491BB7CF6A817B8197
:103790008C819D810E94DF250E94211BAECF4B8131
:1037A0006A8189810E94C4139827892798279D835D
:1037B0008C83A3CF2C813D813227232732274B8155
:1037C0006A8189810E94E61398CF0E94611495CF87
:1037D0006F2DCE010E945F1B90CF0E94EB14898356
:1037E0008CCF0E94ED149827892798279A83898384
:1037F00084CF6B8170E089819A81AE014C5F5F4F0D
:103800009827892798270E94F01477CF6B8170E062
:1038100089819A81AE014C5F5F4F9827892798274D
:103820000E9412156ACF0E94331567CF0E94B2130F
:10383000D6CF6B8170E089819A81AE014C5F5F4F7A
:103840009827892798270E94971457CF6B8170E09B
:1038500089819A81AE014C5F5F4F9827892798270D
:103860000E94B6144ACF41E08B81811101C040E033
:103870006A8189810E94021497CF2C813D81322771
:103880002327322741E08B81811101C040E06A810A
:1038900089810E94351431CF909354028093530252
:1038A0000895E0915302F0915402309729F001906D
:1038B000F081E02D0995089580E00895E09153028C
:1038C000F0915402309721F00280F381E02D0995A8
:1038D0000895DC01E0915302F0915402309739F0E1
:1038E00082E08C930680F781E02DCD010995089543
:1038F000A3E0B0E0EEE7FCE10C94F6259C0180919A
:1039000051029091520282179307A1F03093520214
:1039100020935102E0915302F0915402309751F0FC
:1039200083E089833B832A830084F185E02DCE01E7
:10393000019609952396E2E00C941226A3E0B0E0EC
:10394000E4EAFCE10C94F6259C0180914F029091F1
:10395000500282179307A1F03093500220934F0238
:10396000E0915302F0915402309751F084E0898342
:103970003B832A830084F185E02DCE0101960995D1
:103980002396E2E00C94122640910001509101012F
:103990009A012E5F3F4F485F5F4F80E0F9019081B1
:1039A0002F5F3F4F91118F5F42175307B9F708956B
:1039B000811571F02091000130910101F9013296D9
:1039C000285F3F4F9191981729F0E217F307D1F73D
:1039D00080E0089581E008959C01FC0132968FEF0C
:1039E00090E04191461751F08F3F19F4411101C009
:1039F000892F9F5F9630A9F78F3F09F40895280F0C
:103A0000311D87FD3A95F901628308959C01FC01FF
:103A10003296285F3F4F8191861302C0DF011E92CC
:103A2000E217F307C1F70895682F80910001909184
:103A300001010E94EC1C0895682F80910001909173
:103A400001010E94061D0895E0910001F09101011D
:103A5000329686E0DF011D928A95E9F70895DC0130
:103A6000FB0111969C9111978181981322C01296A7
:103A70008C911297811519F0928189131AC01396AF
:103A80008C911397811519F09381891312C01596A3
:103A90008C911597811519F0958189130AC0149698
:103AA0009C91911521F081E02481291303C080E0CD
:103AB00001C081E08170089508950E945C1D089501
:103AC0008F5F8093100160910D0170910E018091C4
:103AD0000F01909110010E945D1D089583E0809375
:103AE000100160910D0170910E0180910F01909174
:103AF00010010E945D1D08950E94601D089581E0DF
:103B00008093100160910D0170910E0180910F0161
:103B1000909110010E945D1D08950E947F1D0895DF
:103B200091E0811101C090E090930F0160910D012F
:103B300070910E0180910F01909110010E945D1D06
:103B4000089580910F01089580930E0160910D01F9
:103B500070910E0180910F01909110010E945D1DE6
:103B6000089580910E01089580930D0160910D01DB
:103B700070910E0180910F01909110010E945D1DC6
:103B8000089580910D010895089508950E94C51D1E
:103B90000895089508950E94C41D0895CF930E942A
:103BA000C91D0E9412110E94CA1DC0E08C2F0E94E4
:103BB0006110811105C0CF5FC330C1F7CF91089567
:103BC00081E0FCCFCF93DF93EC010E94531E8C1B4E
:103BD0009D0BDF91CF91089585B7806885BF85B72C
:103BE000806885BF08951F921FB61F9211248F937E
:103BF0009F93AF93BF9380915502811113C0809121
:103C0000660290916702A0916802B09169024196A4
:103C1000A11DB11D8093660290936702A093680274
:103C2000B0936902BF91AF919F918F911F901FBE7A
:103C30001F90189580916E02843031F10E947203BA
:103C40001092550288E190E020E40FB6F894A89510
:103C5000809360000FBE2093600083B7817F8460F3
:103C600083BF83B7816083BF7894889583B78E7F45
:103C700083BF0FB6F894A895809160008861809307
:103C80006000109260000FBE08950E94E6060E9438
:103C90007903089582E084BD93E095BD9AEF97BDC6
:103CA00080936E0008952FB7F894809166029091EA
:103CB0006702A0916802B09169022FBF08952FB7E3
:103CC000F894609166027091670280916802909109
:103CD00069022FBF089578941F921FB61F92112476
:103CE0008F939F93AF93BF938091660290916702E9
:103CF000A0916802B09169020196A11DB11D809347
:103D0000660290936702A0936802B0936902BF9124
:103D1000AF919F918F911F901FBE1F90189587E7BD
:103D200097E7909301088093000888E19AE00FB626
:103D3000F894A895809360000FBE90936000FFCF29
:103D400088E19AE00FB6F894A895809360000FBEC2
:103D500090936000FFCF0895282FCB01BA013091D6
:103D60006E023430D9F42F702093E9002FEF309198
:103D7000E80035FD06C035ED3A95F1F700002A95CB
:103D8000B1F72091E80025FF09C040E050E00E9413
:103D9000EF208091E8008E778093E8000895BC01C1
:103DA00043E050E084E00E94AC1E0895BC0146E070
:103DB00050E084E00E94AC1E0895CF93DF93D82F8B
:103DC000C92F0E94A11D48E050E06D2F7C2F81E09B
:103DD0000E94AC1E88E0ED2FFC2FA6E5B2E001901A
:103DE0000D928A95E1F7DF91CF910895792F603296
:103DF00031F440E250E0682F82E00E94AC1E08954A
:103E0000A0E2B0E0E6E0FFE10C94F62580916E02BE
:103E1000843009F583E08093E9008091E80082FF17
:103E20001AC08091E80090E085FF09C040E050E0B2
:103E300060E270E0CE0101960E943F2191E0809106
:103E4000E8008B778093E800911529F060E2CE01BD
:103E500001960E94641BA096E2E00C9412268091C9
:103E60006D02811109C00E94C8220E942523809101
:103E7000E20084608093E200089510926D0208953C
:103E80000E947F1D81E00E94901D089560916A024A
:103E900081E0611101C080E00E946E1D0895909143
:103EA0006E0281E0943009F080E060916A020E9425
:103EB0007C1D089542E061EC81E00E94442242E2D0
:103EC00061EC84E00E94442242E261EC82E00E94C4
:103ED000442242E260EC83E00E94442290916E0210
:103EE00081E0943009F080E060916A020E94601DD8
:103EF000089580917002893089F148F4823009F484
:103F0000A1C0833009F45BC0813041F008958A304C
:103F100009F488C08B3009F46DC0089580916F0258
:103F2000813A09F04BC08091E800877F8093E800D8
:103F30008091730290917402892B61F060E080E0BF
:103F400090E070E00E948F218091E8008B77809351
:103F5000E800089568E086E592E0F3CF80916F0273
:103F6000813261F580917302909174028D7F892B6B
:103F700029F58091E800877F8093E8008091E80030
:103F800082FF18C09091F3008091F200029731F403
:103F90008091F100813011F0863021F48091F100A0
:103FA0000E94A41D8091E8008B778093E8000E9416
:103FB0007822089580916E028111E0CF089580915A
:103FC0006F02813AD9F78091730290917402892B24
:103FD000A9F78091E800877F8093E8008091E8004E
:103FE00080FFFCCF0E94A11D8093F1008091E8002A
:103FF0008E77DBCF80916F02813201F7809173025F
:1040000090917402892BD1F68091E800877F80938C
:10401000E8000E947822809171020E94901D0E9407
:10402000E606089580916F02813241F68091E800A2
:10403000877F8093E8000E947822809172020E941C
:10404000B41D089580916F02813A09F0B7CF809135
:10405000E800877F8093E8008091E80080FFFCCF34
:104060000E94C11DC1CF84B7877F84BF0FB6F8946B
:10407000A895809160008861809360001092600034
:104080000FBE80E890E00FB6F894809361009093A3
:1040900061000FBE0E948D1D08950E94C8220E94DB
:1040A0002523E2EEF0E080818460808378940E9492
:1040B000AB25089581E191E00E944C1C0895809108
:1040C0006E02853031F480916E02853019F00E94C5
:1040D000451E08950E941A1E0E94CE1D811599F357
:1040E00080916C02811579F30E94D9200E94E60626
:1040F000EACF08959A0140917502509176020E948C
:1041000082200895FC01AB01D901892F99278330C2
:104110009105C1F068F48130910509F445C002971A
:1041200061F48BE590E026E032E02D933C93089516
:1041300081329105E1F0829739F180E090E020E052
:1041400030E0F3CFCF019927E13059F0823091056B
:1041500059F0E2E0F2E0892B81F7849190E09F0131
:10416000E4CFEAEEF1E0F9CFECECF1E0F6CF63302A
:10417000710518F7FB01EE0FFF1FE955FE4F208177
:10418000318189E090E0D1CF63307105B0F6FB0159
:10419000EE0FFF1FEF55FE4F2081318142565E4FDB
:1041A000FA01808190E0C1CF82E190E021E632E027
:1041B000BCCF80E189BD82E189BD09B400FEFDCF9D
:1041C0008091D8008F7D8093D8008091E00082603C
:1041D0008093E0008091E00081FDFCCF0895AF92D4
:1041E000BF92CF92DF92EF92FF920F931F93CF93E4
:1041F0006C018B017A010E949722C82F811123C084
:10420000E114F10439F0F70180819181081B190B49
:10421000C80ED91EA12CB12C01151105A1F0809159
:10422000E80085FD21C08091E8008E778093E8004A
:10423000E114F10499F0F701808191818A0D9B1DB1
:1042400091838083C5E08C2FCF911F910F91FF90B8
:10425000EF90DF90CF90BF90AF9008950E9497228B
:104260008115E9F2C82FEFCFF60181916F0180939C
:10427000F10001501109FFEFAF1ABF0ACDCFAF9285
:10428000BF92CF92DF92EF92FF920F931F93CF9343
:104290006C018B017A010E949722C82F811123C0E3
:1042A000E114F10439F0F70180819181081B190BA9
:1042B000C80ED91EA12CB12C01151105A1F08091B9
:1042C000E80085FD21C08091E8008B778093E800AD
:1042D000E114F10499F0F701808191818A0D9B1D11
:1042E00091838083C5E08C2FCF911F910F91FF9018
:1042F000EF90DF90CF90BF90AF9008950E949722EB
:104300008115E9F2C82FEFCF8091F100F60181937A
:104310006F0101501109FFEFAF1ABF0ACDCFFC01A9
:104320009B0180917502909176028617970718F08D
:10433000672B61F0C90140E0009771F441110CC096
:104340008091E80082FF35C080E008958091E80008
:104350008E778093E800EECF20916E022115A9F1AF
:104360002530A9F12091E80023FD2DC02091E8001F
:1043700022FDE6CF2091E80020FFDECF3091F30050
:104380002091F200009719F02830310558F041E0F3
:104390002830310509F040E02091E8002E77209385
:1043A000E800CACF41914093F10001972F5F3F4F42
:1043B000E9CF80916E02811541F0853041F0809106
:1043C000E80083FFBDCF81E0089582E0089583E097
:1043D0000895FC019B0180917502909176028617E9
:1043E000970718F0672B61F0C90140E0009771F45E
:1043F00041110CC08091E80082FF36C080E0089532
:104400008091E8008E778093E800EECF20916E02D5
:104410002115B1F12530B1F12091E80023FD2EC026
:104420002091E80022FDE6CF2091E80020FFDECFBA
:104430003091F3002091F200009719F028303105F7
:1044400058F041E02830310509F040E02091E800C3
:104450002E772093E800CACF44914093F100319623
:1044600001972F5F3F4FE8CF80916E02811541F099
:10447000853041F08091E80083FFBCCF81E0089552
:1044800082E0089583E00895982F973028F08F7088
:104490008093E90081E008959093E900242F762F1E
:1044A00050E0981731F07091EC002091ED005091A0
:1044B000F00021FD02C09F5FE8CF3091EB003E7F0E
:1044C0003093EB003091ED003D7F3093ED00309163
:1044D000EB0031603093EB007093EC002093ED0023
:1044E0005093F0002091EE0027FDE5CF80E0089585
:1044F00080916F0287FF13C08091E80082FF06C0A1
:104500008091E8008B778093E800089580916E0297
:104510008111F2CF089580916E028115D9F38091B7
:10452000E80080FFF8CF8091E8008E77ECCF2091F3
:10453000E4003091E50095E6A9012091EC00822F7E
:10454000817020FF06C08091E80080FF06C080E0F7
:1045500008952091E80022FD1AC080916E02811515
:1045600089F0853089F08091EB0085FD0FC02091A6
:10457000E4003091E50042175307F9F29A95E1F60D
:1045800084E0089582E0089583E0089581E008952D
:104590000E9437230E943F23E0EEF0E0808181609B
:1045A0008083E8EDF0E080818F77808319BCA7EDF0
:1045B000B0E08C918E7F8C9380818F7E808310926F
:1045C0006D0208950F931F93CF93DF930E943723BB
:1045D0000E943F23C8EDD0E088818F77888388814F
:1045E0008068888388818F7D888319BC10926E02D1
:1045F00010926A0210926C0210926B0200EE10E0B0
:10460000F80180818B7F808388818160888342E08C
:1046100060E080E00E944422E1EEF0E080818E7F45
:104620008083E2EEF0E08081816080838081886019
:104630008083F80180818E7F808388818061888378
:10464000DF91CF911F910F910895E8EDF0E0808107
:104650008F7E8083E7EDF0E080818160808384E05D
:1046600082BF81E080936D020E94E2220895E8ED0E
:10467000F0E080818E7F80831092E2000895109296
:10468000DA001092E10008951F920F920FB60F9278
:1046900011242F933F934F935F936F937F938F9347
:1046A0009F93AF93BF93EF93FF938091E10082FFBD
:1046B0000BC08091E20082FF07C08091E1008B7FF8
:1046C0008093E1000E94AA258091DA0080FF19C042
:1046D0008091D80080FF15C08091DA008E7F809392
:1046E000DA008091D90080FF94C080E189BD82E129
:1046F00089BD09B400FEFDCF81E080936E020E9467
:104700002F1F8091E10080FF19C08091E20080FF9F
:1047100015C08091E2008E7F8093E2008091E200DC
:1047200080618093E2008091D80080628093D800FD
:1047300019BC85E080936E020E94461F8091E100C3
:1047400084FF29C08091E20084FF25C080E189BDFB
:1047500082E189BD09B400FEFDCF8091D8008F7D34
:104760008093D8008091E1008F7E8093E10080915A
:10477000E2008F7E8093E2008091E200816080936E
:10478000E20080916A02811509F449C084E08093B7
:104790006E020E944F1F8091E10083FF29C080912B
:1047A000E20083FF25C08091E100877F8093E100D4
:1047B00082E080936E0210926A028091E1008E7F07
:1047C0008093E1008091E2008E7F8093E2008091EF
:1047D000E20080618093E20042E060E080E00E94BD
:1047E00044228091F00088608093F0000E94401F76
:1047F000FF91EF91BF91AF919F918F917F916F91B9
:104800005F914F913F912F910F900FBE0F901F908E
:10481000189519BC10926E020E943D1F72CF8091B4
:10482000E30087FF02C083E0B2CF81E0B0CF1F92E8
:104830000F920FB60F921124EF92FF920F931F93D6
:104840002F933F934F935F936F937F938F939F9398
:10485000AF93BF93CF93EF93FF9309EE10E0F8016E
:104860008081C091EC008F70C795CC27C795C82B6D
:10487000108280EFE82EF12CF7018081877F808302
:1048800078940E946224F8011082F7018081886088
:104890008083CF70F801C083FF91EF91CF91BF91DA
:1048A000AF919F918F917F916F915F914F913F91C8
:1048B0002F911F910F91FF90EF900F900FBE0F90CF
:1048C0001F901895AAE2B0E0E8E6F4E20C94F42513
:1048D0008FE692E0FC0101962091F100208322E016
:1048E00087379207B9F70E94791F8091E80083FF0C
:1048F00038C080916F02909170029A3090F5E92F44
:10490000F0E0E850F94D0C94D925803889F08238D0
:1049100041F5809173028F70873018F58093E9001C
:104920008091EB0085FB882780F91092E90006C092
:1049300080916C02880F90916B02892B9091E80016
:10494000977F9093E8008093F1001092F10080919E
:10495000E8008E7723C0811116C0809171028130EA
:1049600011F18091E80083FF0AC08091E800877F01
:104970008093E8008091EB0080628093EB00AA9620
:10498000E4E00C941026823061F780917102811569
:1049900089F01092E9008091E800877F8093E80019
:1049A0000E947822DECF81E0933009F080E080938E
:1049B0006C02EFCF809173028F702FEF280F26309B
:1049C00080F68093E9002091EB0020FFE2CF933046
:1049D00031F48091EB0080628093EB00DACF90910C
:1049E000EB0090619093EB0021E030E0A90102C060
:1049F000440F551F8A95E2F74093EA001092EA00AF
:104A00008091EB008860E8CF8111ABCF10917102EB
:104A10001F778091E3008078812B8093E300809161
:104A2000E800877F8093E8000E9478228091E80068
:104A300080FFFCCF8091E30080688093E30083E0F7
:104A4000111101C082E080936E028BCF80588230BA
:104A500008F087CF80917102909172028C3D53E0F3
:104A6000950799F583E08A838AE289834FB7F894A2
:104A7000DE01139620E03EE051E2E32FF0E0509398
:104A80005700849120FF03C082958F703F5F8F7025
:104A90008A30C8F0895C90E08D939D932F5F24311C
:104AA00061F74FBF8091E800877F8093E8006AE25A
:104AB00070E0CE0101960E948F218091E8008B77F3
:104AC0008093E8004ECF805DE6CF609173027091D5
:104AD0007402AE014F5F5F4F0E947A208C01892BD8
:104AE00009F43FCF8091E800877F8093E800B80108
:104AF00089819A810E94E921E0CF803809F031CF85
:104B00008091E800877F8093E80080916A0280931B
:104B1000F1001DCF811125CF90917102923008F0E4
:104B200020CF8091E800877F8093E80090936A020D
:104B30000E94782280916A02811531F084E080938E
:104B40006E020E945A1F0DCF8091E30087FDF6CFC1
:104B500081E0F5CF0895CF9380916E02811599F091
:104B60008091E900C091EC008F70C795CC27C79564
:104B7000C82B1092E9008091E80083FD0E94622416
:104B8000CF70C093E900CF91089597FB072E16F4DC
:104B9000009407D077FD09D00E941D2607FC05D0A0
:104BA0003EF4909581959F4F0895709561957F4F44
:104BB0000895EE0FFF1F0590F491E02D09946927E9
:104BC0009627692778278727782708952F923F927D
:104BD0004F925F926F927F928F929F92AF92BF920D
:104BE000CF92DF92EF92FF920F931F93CF93DF93B9
:104BF000CDB7DEB7CA1BDB0B0FB6F894DEBF0FBE16
:104C0000CDBF09942A88398848885F846E847D8462
:104C10008C849B84AA84B984C884DF80EE80FD8064
:104C20000C811B81AA81B981CE0FD11D0FB6F894DA
:104C3000DEBF0FBECDBFED010895AA1BBB1B51E126
:104C400007C0AA1FBB1FA617B70710F0A61BB70BFC
:104C5000881F991F5A95A9F780959095BC01CD01A1
:104C60000895FB01DC0104C08D910190801921F4AD
:104C700041505040C8F7881B990B0895FB01DC0197
:104C800002C001900D9241505040D8F70895F99913
:104C9000FECF92BD81BDF89A992780B50895A8E10D
:104CA000B0E042E050E00C948B26DC01A40FB51F6D
:104CB0004150504048F0CB01840F951F2E910E9427
:104CC000662641505040D0F70895262FF999FECF1F
:104CD00092BD81BDF89A019700B4021639F01FBA4F
:104CE00020BD0FB6F894FA9AF99A0FBE089503966C
:104CF000272F0E9466260E946526252F0E94662681
:104D0000242F0C9466260196272F0E9466260C9469
:104D10006526DC01CB01FC01F999FECF06C0F2BD8E
:104D2000E1BDF89A319600B40D9241505040B8F769
:104D30000895F894FFCFE504E504290529058D05BC
:104D4000AA0514051405AF05200631063106F51530
:104D50006616FD15C715CB150116CF1505161116CC
:104D6000DB155F16DF151516E31519163E16E71548
:104D70001D164516ED1523162B16D3150916D71536
:104D80000D16F115271635164E165D16C115F915B7
:104D90006D160C17121715171B1730173017301711
:104DA000301730173017301730171E1723172717F3
:104DB0002D173E1744174817811A871A701A7B1A45
:104DC0008D1A931A991A7A1B891BBD1BCF1BDA1BEC
:104DD000E51BE81BE81BE81B911B911BED1BF11B5E
:104DE000F91B061C131C161C191C261C331C3D1C0D
:104DF0008524AB24B124AB24B12404252625B12479
:044E00007D258A255D
:104E04000F02280850011E0A1401030201000001C8
:104E140000B11DDD1EAB1ED61ECF1EE200E900EA66
:104E240000B500B600B700CD008301CC008A019222
:104E34000194012102230224022502260227022AC8
:104E440002B300B4006F0070009F01CB019F02A069
:104E540002E200E900EA00B500B600B700CD008325
:104E640001CC008A0192019401210223022402252B
:104E740002260227022A02B300B4006F0070009FCA
:104E840001CB019F02A002C634976694909100FF63
:104E94000100010000FFFF0000010001FF004422A7
:0E4EA4007B10037302950218023102510200C6
:00000001FF
